:03000000020026D5
:0C002600787FE4F6D8FD75812E02006D95
:1000030048656C6C6F203531210D0A004C45445F07
:0B0013004F4E004C45445F4F46460036
:05029400011C00C10087
:10027E0075985053890F438920758BFD758DFDD26E
:06028E008ED2ACD2AF22BB
:100256008B238A248925AB23AA24A9251201B16000
:10026600160525E5257002052414F91201B1F59944
:080276003099FDC29980DF22DE
:10013400E4F521F52212027E0522E5227002052152
:10014400AE21FFE4FCFD7B507AC3F9F8D31201CA57
:10015400500E7BFF7A007903120256E4F521F52252
:100164003000D57526FF75270075280F7B007A00AF
:1001740079081200B2E94A4B6004C2A080197526BE
:10018400FF7527007528167B007A0079081200B2E3
:10019400E94A4B6002D2A07E007F147D007B007A86
:0D01A4000079081201E0E4F51CC200808B18
:0300230002020CCA
:0D020C00C0E0C0D075D000C000C006C00723
:1002190030982FC298AF99EF640A6003BF0D12E5B9
:100229001CD39400401C7408251CF87600D2008069
:1002390011E51CC39413500AAE1C051C74082EF852
:02024900A60706
:0B024B00D007D006D000D0D0D0E032A9
:10003200020134E493A3F8E493A34003F68001F2AF
:1000420008DFF48029E493A3F85407240CC8C333CF
:10005200C4540F4420C8834004F456800146F6DF9E
:10006200E4800B0102040810204080900294E47E98
:10007200019360BCA3FF543F30E509541FFEE49393
:10008200A360010ECF54C025E060A840B8E493A35A
:10009200FAE493A3F8E493A3C8C582C8CAC583CA85
:1000A200F0A3C8C582C8CAC583CADFE9DEE780BE3D
:010299000064
:1001B100BB010689828A83E0225002E722BBFE024C
:0901C100E32289828A83E493227F
:1001CA00EB9FF5F0EA9E42F0E99D42F0EC6480C8AC
:0601DA0064809845F0224C
:1000B2008B238A248925AB26AA27A9281201B1609D
:1000C20063AB23AA24A9251201B1605F8526298585
:1000D200272A85282B8B2C8A2D892EAB29AA2AA97F
:1000E2002B1201B1FF6023AB2CAA2DA92E1201B154
:1000F2006F701704252BF52BE4352AF52A74012598
:100102002EF52EE4352DF52D80D1AB29AA2AA92B67
:100112001201B17002800D74012525F525E4352404
:10012200F524809DAB23AA24A925227B007A00799D
:020132000022A9
:1001E000EF4E6012EF60010EEDBB010B89828A8336
:1001F000F0A3DFFCDEFA2289F05007F709DFFCA943
:0C020000F022BBFEFCF309DFFCA9F02299
:00000001FF
