:030000000201B04A
:0C01B000787FE4F6D8FD7581200201F78D
:0A02CA003F065B4F666D7D077F6FF6
:10028500080A00000000000000000212000004142B
:0C02950000000000C10001080001090089
:1002B7005389F0438901758CFC758A6FD2A9D2AF37
:0302C700D28C22B4
:08023C008F1B8E1A8D198C181E
:10024400E4F51CE47B0AFAF9F8AF1BAE1AAD19AC5D
:100254001812011EAF03C37407951C240AF8A607DD
:10026400AF1BAE1AAD19AC18E47B0AFAF9F8120107
:100274001E8F1B8E1A8D198C18051CE51CB408C31F
:010284002257
:03000B0002000EE2
:0D000E00C0E0C083C082C0D075D000C0002B
:10001B0074062508F508C3940A400E74F62508F5F6
:10002B0008758CFC758A6E8006758CFC758A6F055D
:10003B0013E51370020512C394E8E5129403401DF7
:10004B00751200751300E5172401F517E43516F545
:10005B0016E43515F515E43514F514D2007580004A
:10006B00E509B40800504D900079F8282873020078
:10007B009102009502009902009D0200A10200A9C5
:10008B000200B10200B9D2A4800ED2A48012D2A475
:10009B008016D2A4801AC2A4D2A3D2A28016C2A464
:1000AB00D2A3C2A2800EC2A4C2A3D2A28006C2A4B3
:1000BB00C2A3C2A2740A2509F8E69002CA93F5807E
:0C00CB000509E509C3940840037509000D
:0B00D700D000D0D0D082D083D0E03227
:1002A2001202B73000FDAF17AE16AD15AC14120234
:0502B2003CC20080EEDB
:1001BC000202A2E493A3F8E493A34003F68001F2B5
:1001CC0008DFF48029E493A3F85407240CC8C33344
:1001DC00C4540F4420C8834004F456800146F6DF13
:1001EC00E4800B0102040810204080900285E47E1C
:1001FC00019360BCA3FF543F30E509541FFEE49308
:10020C00A360010ECF54C025E060A840B8E493A3CE
:10021C00FAE493A3F8E493A3C8C582C8CAC583CAF9
:10022C00F0A3C8C582C8CAC583CADFE9DEE780BEB1
:0102A100005C
:1000E20075F008758200EF2FFFEE33FECD33CDCCD5
:1000F20033CCC58233C5829BED9AEC99E582984058
:100102000CF582EE9BFEED9AFDEC99FC0FD5F0D634
:10011200E4CEFBE4CDFAE4CCF9A88222B800C1B95E
:100122000059BA002DEC8BF084CFCECDFCE5F0CB9C
:10013200F97818EF2FFFEE33FEED33FDEC33FCEBD5
:1001420033FB10D703994004EB99FB0FD8E5E4F990
:10015200FA227818EF2FFFEE33FEED33FDEC33FC7D
:10016200C933C910D7059BE99A4007EC9BFCE99A71
:10017200F90FD8E0E4C9FAE4CCFB2275F010EF2FB6
:10018200FFEE33FEED33FDCC33CCC833C810D707B6
:100192009BEC9AE899400AED9BFDEC9AFCE899F8F1
:0E01A2000FD5F0DAE4CDFBE4CCFAE4C8F92284
:00000001FF
