:030000000200A556
:0C00A500787FE4F6D8FD7581200200ECA5
:10028000021A000001080011093F065B4F666D7DF0
:0A029000077F6F777C395E797100FB
:0B029B00EF1FAC0670011E4C70F62235
:04000E00AB07AA068C
:100012007C007D0A1201318D1D7C007D0AAF03AE8A
:10002200021201317C007D0A1201318D1E7C007D9D
:1000320064AF03AE021201317C007D0A1201318DE0
:100042001FAE02AF037C037DE81201317C007D0A02
:100052001201318D20E4FDED14601214601714605A
:100062001C2403701EC2A4C2A3C2A28016C2A4C2D0
:10007200A3D2A2800EC2A4D2A3C2A28006C2A4D2DC
:10008200A3D2A2741D2DF8E62409F8E6F580BD027C
:10009200034380807FF47E0112029BE4F5800DBD54
:0200A20004B5A3
:0100A4002239
:10022000C3EF94B6EE9403400ED3EF941AEE940409
:100230005005C2A0D2A122C3EF9452EE940340080D
:10024000EF94B6EE94034012D3EF941AEE94044068
:100250000ED3EF947EEE94045005C2A0C2A122D228
:04026000A0D2A12265
:10018600E4F51C75907FE590647F60407FE87E0310
:1001960012029BE590647F6033AF90EF2485601078
:1001A60024FE601114601324077012751C01800D63
:1001B600751C028008751C038003751C04E5906499
:0E01C6007F6009AF1BAE1A12000E80F1AF1C55
:0101D4002208
:1001D500E4F9758901758CDCF58AD2A9D2AFD2A074
:1001E500D2A1120186A907B90107750801D28C8031
:1001F5001DB9020E750802C28CAF1BAE1A12022081
:100205008010B9030DE4F508C28CF51AF51BD2A0D0
:0B021500D2A1AF1BAE1A12000E80C772
:03000B000202648A
:10026400C0E0C0D0758CDC758A00E508B4010805CF
:0C0274001BE51B7002051AD0D0D0E03250
:1000B1000201D5E493A3F8E493A34003F68001F28F
:1000C10008DFF48029E493A3F85407240CC8C33350
:1000D100C4540F4420C8834004F456800146F6DF1F
:1000E100E4800B0102040810204080900280E47E2D
:1000F100019360BCA3FF543F30E509541FFEE49314
:10010100A360010ECF54C025E060A840B8E493A3DA
:10011100FAE493A3F8E493A3C8C582C8CAC583CA05
:10012100F0A3C8C582C8CAC583CADFE9DEE780BEBD
:01029A000063
:10013100BC000BBE0029EF8DF084FFADF022E4CCB2
:10014100F875F008EF2FFFEE33FEEC33FCEE9DEC7B
:10015100984005FCEE9DFE0FD5F0E9E4CEFD22EDC1
:10016100F8F5F0EE8420D21CFEADF075F008EF2F0B
:10017100FFED33FD4007985006D5F0F222C398FDFC
:050181000FD5F0EA2299
:00000001FF
