:0300000002000EED
:0C000E00787FE4F6D8FD75810D020055E6
:0A013D003F065B4F666D7D077F6F84
:0E012E00020B0000010D000209000001080094
:10011E00438901758CFC758A18D2A9D2AFD28C2274
:03000B0002009A56
:0D009A00C0E0C083C082C0D075D000C0009F
:1000A700758CFC758A187580000508E508C39402ED
:1000B7004003750800E50814600704700AC2A280AF
:1000C70002D2A2C2A3C2A4740B2508F8E690013D90
:1000D70093F580050AE50A70020509C394E8E50966
:1000E70094034012750900750A00050DE50DD394B8
:0600F700634003750D00DB
:0B00FD00D000D0D0D082D083D0E03201
:1001080012011EE50D75F00A8485F00BE50D75F0FA
:060118000A84F50C80EDE5
:10001A00020108E493A3F8E493A34003F68001F2F3
:10002A0008DFF48029E493A3F85407240CC8C333E7
:10003A00C4540F4420C8834004F456800146F6DFB6
:10004A00E4800B010204081020408090012EE47E17
:10005A00019360BCA3FF543F30E509541FFEE493AB
:10006A00A360010ECF54C025E060A840B8E493A372
:10007A00FAE493A3F8E493A3C8C582C8CAC583CA9D
:10008A00F0A3C8C582C8CAC583CADFE9DEE780BE55
:01013C0000C2
:00000001FF
