:0300000002026495
:0C026400787FE4F6D8FD7581230202AB20
:080313000102030400000000D8
:1002F00011083F065B4F666D7D077F6F777C395E27
:0303000079710010
:040304007FE87E030D
:0B030800EF1FAC0670011E4C70F622C7
:1000F900E4F52375907FE590647F602C120304AFCB
:1001090090EF2485601024FE601114601324077099
:1001190012752301800D752302800875230380035E
:10012900752304E590B47FFB7590BFE59064BF60CB
:100139002C120304AF90EF2445601024FE601114C3
:10014900601324077012752305800D752306800836
:100159007523078003752308E590B4BFFB7590DF0D
:10016900E59064DF602C120304AF90EF2425601042
:1001790024FE601114601324077012752309800D81
:1001890075230A800875230B800375230CE590B449
:10019900DFFB7590EFE59064EF602C120304AF90DC
:1001A900EF2415601024FE601114601324077012E7
:1001B90075230D800D75230E800875230F80037537
:0901C9002310E590B4EFFBAF2315
:0101D200220A
:1001D300E4F519F51A781B7C00FD7BFF7A0379138C
:1001E300FE7F041200D3781F7C007D007BFF7A031F
:1001F30079177E007F041200D3E4FD7B01FAD2A0BD
:10020300F580C2A4C2A3C2A21200F98F19E5196036
:10021300F714F51A2408F8E6F580E51AB40F08E494
:10022300FDD2A0F58080E1EDC394045007741F2D27
:10023300F8A61A0DBD04D17B01E4FA741B2AF8E673
:10024300FF741F2AF8E66F6004E4FB80040ABA0413
:10025300EABB0104C2A08005D2A0851680E4FD801C
:01026300A7F3
:100270000201D3E493A3F8E493A34003F68001F2D0
:1002800008DFF48029E493A3F85407240CC8C3338F
:10029000C4540F4420C8834004F456800146F6DF5E
:1002A000E4800B01020408102040809002F0E47EFC
:1002B000019360BCA3FF543F30E509541FFEE49353
:1002C000A360010ECF54C025E060A840B8E493A31A
:1002D000FAE493A3F8E493A3C8C582C8CAC583CA45
:1002E000F0A3C8C582C8CAC583CADFE9DEE780BEFD
:0103030000F9
:10000300E709F608DFFA8046E709F208DFFA803EDF
:1000130088828C83E709F0A3DFFA8032E309F608CC
:10002300DFFA8078E309F208DFFA807088828C8334
:10003300E309F0A3DFFA806489828A83E0A3F608E8
:10004300DFFA805889828A83E0A3F208DFFA804CC2
:1000530080D280FA80C680D4806980F28033801099
:1000630080A680EA809A80A880DA80E280CA803302
:1000730089828A83ECFAE493A3C8C582C8CCC5837A
:10008300CCF0A3C8C582C8CCC583CCDFE9DEE7804A
:100093000D89828A83E493A3F608DFF9ECFAA9F0C9
:1000A300EDFB2289828A83ECFAE0A3C8C582C8CC1F
:1000B300C583CCF0A3C8C582C8CCC583CCDFEADE38
:1000C300E880DB89828A83E493A3F208DFF980CC9A
:1000D30088F0EF60010E4E60C388F0ED2402B40493
:1000E3000050B9F582EB2402B4040050AF2323453A
:0600F3008223900053730C
:00000001FF
